:100000000C94FB050C9423060C9423060C942306F5
:100010000C9423060C9423060C9423060C942306BC
:100020000C9423060C9423060C948B120C94FA1255
:100030000C9423060C9423060C9423060C9423069C
:100040000C9423060C946B160C9423060C94230634
:100050000C9423060C9423060C9423060C942C1564
:100060000C9423060C9423060C9423060C9423066C
:100070000C9423060C9423060C9423060C9423065C
:100080000C9476150C9423060C9423060C942306EA
:100090000C9423060C9423060C9423060C9423063C
:1000A0000C9423060C9423060C9423060000F0F015
:1000B000F0F00000000000000C0CC3C33F3FC3C3BE
:1000C0000C0C00000000030300000303000000000C
:1000D00000000000F0F0F0F0000000000C0CC3C3C2
:1000E0003F3FC3C30C0C00000000030300000303E8
:1000F000000000001C2222222410122A214141412A
:10010000424A2424180000030018000080FFFCF875
:10011000E0FCF00F1F3B303B1F0F000000001F787A
:100120000000F0E0F0FCF8F00E1F3B30391F0F002C
:10013000000300E0C0000080E0FCFFFFE00E1F3B7A
:10014000303B1F0F000C030000000000E0C0E0FE89
:10015000FC800E1F3B303D1F0F00F03804000000F4
:1001600000E0F9F0C0E0000F1F39303B1F0F0080A6
:10017000C02000000080F3F970FAFC000F1F393036
:100180003B1F0F060505EDD5D5F5D5FDD5DDD5D53C
:10019000D5DDD5FDD5F5D5D5ED050506FFC1C1F5F4
:1001A00031313F003CF7C5C5FF00FECAC2F6C2CAE6
:1001B000FE00FEC2C2DAD2D2FE00FEC2C2FAC2C243
:1001C000FE000000FFC1C1DDCDCDFF00FEC2C2DEDA
:1001D000C2C2FE007EE2A2AE8282FE0000000000EB
:1001E000000000000000000000000000000000000F
:1001F00000000000000000000000000000000000FF
:1002000000000000000000000000000000000000EE
:100210000000000001010101010100000000003E9A
:100220005B4F5B3E3E6B4F6B3E1C3E7C3E1C183C66
:100230007E3C181C577D571C1C5E7F5E1C00183CC2
:100240001800FFE7C3E7FF0018241800FFE7DBE70B
:10025000FF30483A060E2629792926407F050507F2
:10026000407F05253F5A3CE73C5A7F3E1C1C08084E
:100270001C1C3E7F14227F22145F5F005F5F060913
:100280007F017F006689956A606060606094A2FF6C
:10029000A29408047E040810207E201008082A1C5E
:1002A00008081C2A08081E101010100C1E0C1E0C2A
:1002B00030383E3830060E3E0E06000000000000CA
:1002C000005F00000007000700147F147F14242A39
:1002D0007F2A12231308646236495620500008070B
:1002E0000300001C2241000041221C002A1C7F1C2C
:1002F0002A08083E0808008070300008080808082E
:10030000000060600020100804023E5149453E0094
:10031000427F400072494949462141494D331814F2
:10032000127F1027454545393C4A49493141211141
:1003300009073649494936464949291E0000140033
:100340000000403400000008142241141414141456
:10035000004122140802015909063E415D594E7CB4
:100360001211127C7F494949363E414141227F4169
:1003700041413E7F494949417F090909013E4141C7
:1003800051737F0808087F00417F41002040413FB2
:10039000017F081422417F404040407F021C027FC1
:1003A0007F0408107F3E4141413E7F090909063E16
:1003B0004151215E7F0919294626494949320301E5
:1003C0007F01033F4040403F1F2040201F3F4038F7
:1003D000403F631408146303047804036159494DD2
:1003E00043007F4141410204081020004141417F08
:1003F000040201020440404040400003070800207E
:10040000545478407F28444438384444442838447D
:1004100044287F385454541800087E090218A4A4B4
:100420009C787F0804047800447D40002040403DD3
:10043000007F1028440000417F40007C047804784D
:100440007C080404783844444438FC1824241818E0
:10045000242418FC7C08040408485454542404043C
:100460003F44243C4040207C1C2040201C3C403029
:10047000403C44281028444C9090907C4464544C58
:1004800044000836410000007700000041360800B3
:1004900002010204023C2623263C1EA1A161123A5D
:1004A0004040207A385454555921555579412154AA
:1004B000547841215554784020545579400C1E52AF
:1004C0007212395555555939545454593955545453
:1004D000580000457C410002457D420001457C40BA
:1004E000F0292429F0F0282528F07C5455450020D7
:1004F00054547C547C0A097F493249494932324874
:10050000484832324A4848303A4141217A3A4240DA
:100510002078009DA0A07D39444444393D404040AE
:100520003D3C24FF2424487E4943662B2FFC2F2B7F
:10053000FF0929F620C0887E090320545479410020
:1005400000447D413048484A32384040227A007A9F
:100550000A0A727D0D19317D2629292F282629297D
:10056000292630484D40203808080808080808089F
:10057000382F10C8ACBA2F102834FA00007B0000C6
:1005800008142A142222142A14089500220095AA7D
:10059000005500AAAA55AA55AA000000FF00101095
:1005A00010FF00141414FF001010FF00FF1010F0D3
:1005B00010F0141414FC001414F700FF0000FF00E6
:1005C000FF1414F404FC141417101F10101F101F34
:1005D0001414141F00101010F0000000001F101061
:1005E00010101F10101010F010000000FF1010105D
:1005F000101010101010FF10000000FF140000FF7A
:1006000000FF00001F10170000FC04F41414171062
:10061000171414F404F40000FF00F7141414141455
:100620001414F700F7141414171410101F101F14CB
:100630001414F4141010F010F000001F101F00002C
:10064000001F14000000FC140000F010F01010FF58
:1006500010FF141414FF141010101F00000000F0FD
:1006600010FFFFFFFFFFF0F0F0F0F0FFFFFF0000D2
:10067000000000FFFF0F0F0F0F0F38444438447C79
:100680002A2A3E147E02020606027E027E0263557C
:100690004941633844443C04407E201E2006027ECB
:1006A000020299A5E7A5991C2A492A1C4C720172DD
:1006B0004C304A4D4D303048784830BC625A463D47
:1006C0003E494949007E0101017E2A2A2A2A2A44FC
:1006D000445F444440514A444040444A5140000031
:1006E000FF0103E080FF000008086B6B083612363C
:1006F0002436060F090F060000181800000010101D
:10070000003040FF0101001F01011E00191D1712DA
:10071000003C3C3C3C0000000000D5F08D14A1C81A
:1007200081CFD9F1AF20000C0C3030FFFF3C3C00F2
:100730000000000C0C30303F3FC0C0000000000043
:1007400000000000000303000000000000C0C0FF24
:10075000FFCFCF000000000303F0F0CFCF30300315
:100760000300000000030300000000000000000878
:100770000C0E0EFF0E0E0C083C3CFFFF30300C0C34
:1007800000000000C0C03F3F30300C0C00000000F3
:100790000303000000000000000000000000CFCFB5
:1007A000FFFFC0C00000000003033030CFCFF0F0E7
:1007B000030300000000000000000303000000002D
:1007C0000000000000000000F0F0F0F0C0C0C0C069
:1007D0003333CFCF0C0C00000000000000000000FD
:1007E000030300000000C0C0C0C00000F0F0F0F043
:1007F0003030C0C03030CFCFCCCCC3C300000000FD
:1008000000000000000000000000C0C0C0C00000E8
:10081000F0F0F0F03030C0C03030CFCFCCCC03039C
:1008200000000000000000000000030300000000C2
:10083000C0C00000F0F0F0F000000000F0F0CFCFFA
:100840000C0C00000303030300000303000000007E
:100850000000000000000000C0C0C0C00000000098
:10086000F0F0CFCF33330303000003030000000098
:10087000000000000000000000000000C0C0C0C078
:100880000000C0C0FCFC0F0F0303030300000000C6
:100890000303000000000000000000000000000052
:1008A000C0C0C0C00000C0C0F0F0CFCF030303033E
:1008B000000000000000030300000000F0F0F0F072
:1008C000000000000000000000000C0CCFCF33330C
:1008D000C0C0C0C000000303000000000000000012
:1008E000F0F0F0F00000C0C0C0C00000C3C3CCCC2A
:1008F000CFCF3030C0C0303000000000000000001A
:1009000000000000F0F0F0F00000C0C0C0C0000027
:100910000303CCCCCFCF3030C0C030300303000055
:100920000000000000000000F0F0F0F00000C0C087
:100930000000000000000C0CCFCFF0F00000000021
:10094000000000000303000003030303C0C0C0C095
:10095000000000000000000003033333CFCFF0F0AD
:100960000000000000000000000000000303000081
:10097000C0C0C0C00000000000000000030303036B
:100980000F0FFCFCC0C000000000000000000303CB
:1009900000000000C0C0C0C0000000000000000057
:1009A00003030303CFCFF0F0C0C00000000000003D
:1009B000030300000000000000000000F8F8787851
:1009C000000000000C0CC3C33F3FC3C3030300007F
:1009D000000003030000000003030000000078781B
:1009E000F8F80000000000000303C3C33F3FC3C387
:1009F0000C0C0000030300000000030300000000D3
:100A000008641F6708FFFF03030303333303030373
:100A100003FFFF0000F0F03F3F33333333FFFF00AD
:100A200000FCFCCCCC0C0C3C3C0C0CCCCCFCFC00FE
:100A300000FCFC0C0C0C0CCCCC0C0C0C0CFCFC00CE
:100A400000FCFC0C0C0C0CCCCC0C0C0C0CFCFC00BE
:100A50000000000000FFFF03030303F3F3F3F3F3CD
:100A6000F3FFFF0000FCFC0C0C0C0CFCFC0C0C0C51
:100A70000CFCFC0000FCFC0C0C0C0CFCFC0C0C0C2E
:100A80000CFCFCFFFFF0F0F0F0FFFF0F0F0F0F0F5B
:100A90000F00000F0FFFFFF0F0F0F0FFFF0000FF6E
:100AA000FFF0F0F0F0FFFFF0F0F0F0FFFF0000FFCC
:100AB000FFF0F0F0F0F3F3F3F3F3F3FFFF0000FFC8
:100AC000FFF0F0F0F0FFFFF0F0F0F0FFFF000000AB
:100AD000000000FFFFF0F0F0F0F3F3F0F0F0F0FFB3
:100AE000FF0000FFFFF0F0F0F0F3F3F0F0F0F0FFA4
:100AF000FF00003F3FFCFCCCCCCCCCC0C0C0C0FF52
:100B0000FF000000000000000000000000000000E6
:100B100000000000000000000000000000000000D5
:100B200000000000000000000000000000000000C5
:100B300000000000000000000000000000000000B5
:100B400000000000000000000000000000000000A5
:100B50000000000000000000000000000000000095
:100B60000000000000000000000000000000000085
:100B70000000000303030303030303030303030849
:100B80000B00020202000009040000010202000042
:100B90000524001001052401010104240206052496
:100BA0000600010705810310004009040100020A44
:100BB0000000000705020240000007058302400014
:100BC000000403090412010002EF02014041233630
:100BD0008000010102030141726475696E6F204C4F
:100BE0004C430041726475696E6F204C656F6E6195
:100BF00072646F00D11611241FBECFEFDAE0DEBFA2
:100C0000CDBF11E0A0E0B1E0E2EFF5E402C0059055
:100C10000D92AC38B107D9F726E0ACE8B1E001C0DD
:100C20001D92A533B207E1F715E0CBEFD5E004C084
:100C30002197FE010E94F122CA3FD107C9F70E9405
:100C4000F4160C94F7220C9400008091A1010895F1
:100C50004F925F926F927F928F929F92AF92BF92CC
:100C6000CF92DF92EF92FF920F931F93CF93DF9378
:100C700030E0F901E80FF91F1E161F060CF0A0C0A6
:100C8000803891050CF09CC0FB01E00FF11D1E1691
:100C90001F060CF095C0603471050CF091C0DB01AB
:100CA00077FF04C0AA27BB27A61BB70BA770BB27DB
:100CB000FB0177FD3796C3E0F595E795CA95E1F717
:100CC00077FF07C0319768E070E0EB01CA1BDB0BD0
:100CD000DE01802E869486948694912C077019F0FC
:100CE000DFEF8D1A9D0ABF018A01AF015695542F7F
:100CF000442757954795480F591F41525E4F860E1E
:100D0000971EE8E0F0E03F016A1A7B0A8616970614
:100D100009F456C06830710509F452C06F3FEFEF17
:100D20007E070CF443C07C01D0E0C0E05A01E0E84B
:100D3000AE0EB11CF7FC2EC06F3F760709F43DC024
:100D4000FE01E00FF11FE4916A01CC0EDD1EF0E020
:100D50002F010A2E01C0440C0A94EAF7F6015080D4
:100D6000452840821097B1F06730710599F0F8017D
:100D7000EC0FFD1FE4916501CC0EDD1EF0E02F01AC
:100D8000062C02C0559447940A94E2F7F60150806D
:100D9000452840822196FFEFEF1AFF0AC217D307BA
:100DA0002CF4F0E8EF16F10409F0C4CF6F5F7F4F29
:100DB000020F131F40585F4FA9CF1097C1F6EACF1B
:100DC000DF91CF911F910F91FF90EF90DF90CF9027
:100DD000BF90AF909F908F907F906F905F904F905B
:100DE00008959C01480F592F511D4138510514F0A9
:100DF00040E850E0421BCB018770992791E001C089
:100E0000990F8A95EAF777FF02C0695F7F4FFB0170
:100E100083E0F595E7958A95E1F7F695FE2FEE27A5
:100E2000F795E795E20FF31FE152FE4F415030F086
:100E30008191DF011197892B8C93F8CF0895FC01E4
:100E40008091DE01882311F13FB7F89482E080930E
:100E5000E9002091F200822F90E01816190614F490
:100E600081E090E0882339F0289844E64093DD0142
:100E70004091F1004083222339F02091F2002111AA
:100E800003C02BE62093E8003FBF08958FEF9FEF4C
:100E900008952FB7F89483E08093E9009091E800DB
:100EA000892F807295FF04C09091F20080E4891B25
:100EB0002FBF08958091D50181110DC082E08093EC
:100EC000D10184E08093D2011092D4011092D30119
:100ED00081E08093D50181ED91E00895CF93DF9378
:100EE0001F92CDB7DEB76983DC01ED91FC910280E2
:100EF000F381E02D41E050E0BE016F5F7F4F099527
:100F00000F90DF91CF91089583E08093E900809165
:100F1000F200882319F08AE38093E80008950E9484
:100F2000490790E00895CF93DF931F92CDB7DEB7C6
:100F3000FC018485958597FD08C02FEF3FEF35872D
:100F400024870F90DF91CF910895CE0101960E94E2
:100F50001F07019719F4898190E0F3CF8FEF9FEF7E
:100F6000F0CF0F931F93CF93DF931F92CDB7DEB7D0
:100F70008C01FC018485958597FF0BC0CE010196FD
:100F80000E941F07019771F4898190E0F80195870D
:100F90008487F801848595850F90DF91CF911F910B
:100FA0000F9108958FEF9FEFF1CFFC018485958518
:100FB00097FD0BC09FB7F89482E08093E900809181
:100FC000F2009FBF90E0019608959FB7F89482E0E9
:100FD0008093E9008091F2009FBF90E008954091D6
:100FE000CB015091CC012091C9013091CA01421727
:100FF0005307B4F49091E8009570E1F39091E80004
:1010000092FD19C08093F1008091CB019091CC01A9
:1010100001968F739927892B19F48EEF8093E8003E
:101020008091CB019091CC0101969093CC0180935B
:10103000CB0181E0089580E00895EF92FF920F9335
:101040001F93CF93DF93F82E192FE62E042F81E004
:10105000860F880F0E94EF0783E00E94EF07CF2DD5
:10106000D12FEC0EFD2EF11CCE15DF05B9F007FFD8
:1010700013C0FE0184910E94EF07182F80E00E94A8
:10108000EF07812321968111EFCFDF91CF911F913F
:101090000F91FF90EF9008958881EDCF81E0F5CF1B
:1010A000DF92EF92FF920F931F93CF93DF93D82E8F
:1010B0008A01EB017B01E40EF51ECE15DF0559F028
:1010C000D7FE12C0FE0184910E94EF072196811184
:1010D000F4CF0FEF1FEFC801DF91CF911F910F9158
:1010E000FF90EF90DF9008958881EECF0F931F93CC
:1010F000CF93DF931F92CDB7DEB782E0898342E4BE
:1011000050E06FE77BE080E80E9450080E945A0799
:10111000DC0112960D911C910115110589F0D80181
:10112000ED91FC910280F381E02DBE016F5F7F4F56
:10113000C801099597FD04C0F80100851185ECCF21
:1011400089810F90DF91CF911F910F910895615088
:1011500030F02091F100FC0120830196F8CF28980F
:1011600084E68093DD0108953FB7F8948091C5012E
:101170009091C601A091C701B091C80126B5A89B66
:1011800005C02F3F19F00196A11DB11D3FBFBA2F19
:10119000A92F982F8827BC01CD01620F711D811DD9
:1011A000911D42E0660F771F881F991F4A95D1F75E
:1011B00008958F929F92AF92BF92CF92DF92EF925B
:1011C000FF926B017C010E94B4084B015C01C114C9
:1011D000D104E104F104B9F00E94B4086819790956
:1011E0008A099B09683E73408105910580F321E0DF
:1011F000C21AD108E108F10888EE880E83E0981E33
:10120000A11CB11CE4CFFF90EF90DF90CF90BF9076
:10121000AF909F908F90089565E070E080E090E03F
:101220000C94D9088F929F92AF92BF92CF92DF9287
:10123000EF92FF920F931F93CF93DF936C017B018B
:101240008A0180914101882309F45CC08091DE010C
:10125000882309F457C08091D00180FF05C0809198
:10126000E00082608093E000E801B12C8AEFA82EB4
:1012700093E0892E2AE3922E209711F4BB20D9F116
:101280000E94490781110AC0AA94AA20D9F161E0FD
:1012900070E080E090E00E94D908EECF8C171D0628
:1012A00011F00CF08C2F9FB7F8948092E9002091F8
:1012B000E80025FD02C09FBFDFCF282F30E0C21B12
:1012C000D30BF701815020F041914093F100FACF08
:1012D000E20EF31EBB2021F09092E800B12CEBCF80
:1012E0008091E80085FDE7CF9092E800BB24B3949D
:1012F000209709F3F3CF5D9884E68093CF01101611
:1013000011063CF081E090E0F6019383828310E0C7
:1013100000E0C801DF91CF911F910F91FF90EF90F6
:10132000DF90CF90BF90AF909F908F900895AF9235
:10133000BF92CF92DF92EF92FF920F931F93CF93C2
:10134000DF936C017B018B01040F151FEB015E0124
:10135000AE18BF08C017D10759F06991D601ED91B9
:10136000FC910190F081E02DC6010995892B79F758
:10137000C501DF91CF911F910F91FF90EF90DF900A
:10138000CF90BF90AF9008958EBD00000DB407FEC2
:10139000FDCF0895282F9FB19095907F669B986010
:1013A0001C9B9460922381E0921380E00895803822
:1013B0009105B8F460347105A0F420E191E061FD7D
:1013C00094E060FD990F62FD9295687F269FD001A1
:1013D0001124A80FA152BE4F8C9140FF03C0892B4E
:1013E0008C93089590958923FBCF2F923F924F9233
:1013F0005F926F927F928F929F92AF92BF92CF92A5
:10140000DF92EF92FF920F931F93CF93DF93EC0144
:101410008B017A016901C61AD70AD7FE03C0D1949D
:10142000C194D10847018C1A9D0A97FE03C091947C
:10143000819491088C149D0454F49E2D8F2D790174
:10144000292F382F9C2F8D2FE801092F182FEC16EC
:10145000FD0654F4902F812F8901292F382F9C2FBE
:101460008D2FE701E92EF82E17012C1A3D0A2901CC
:10147000401A510A57FE03C051944194510831015A
:1014800037FE03C08FEF681A780A759467948FEF60
:10149000021713070CF481E0A82E880FBB08EC1686
:1014A000FD06A4F041E0BE01C8018C149D0414F0B7
:1014B000B801CE010E94D7096418750877FE04C0F0
:1014C0000A0D1B1D620C731C2196E9CFDF91CF9191
:1014D0001F910F91FF90EF90DF90CF90BF90AF9052
:1014E0009F908F907F906F905F904F903F902F9044
:1014F00008958F929F92AF92BF92CF92DF92EF9218
:10150000FF920F931F93CF93DF936D3089F0C090BC
:10151000A801D090A9016A30D1F41092A7011092CD
:10152000A60188E0C80ED11CD092A901C092A801E2
:1015300081E090E0DF91CF911F910F91FF90EF90AC
:10154000DF90CF90BF90AF909F908F9008950091C3
:10155000A6011091A701E5E06E9FE0011124C65E8F
:10156000DD4F4801F12CF5E0E12CFF1629F0CE010A
:101570000196FE01E490EC01B12CA12C4E2D41709E
:10158000B6016A0D7B1DC4010E94D709E694FFEFE6
:10159000AF1ABF0A88E0A816B10481F7F394EFEF01
:1015A0008E1A9E0AF6E0FF12DECF0A5F1F4F1093DD
:1015B000A7010093A601BCCF4F925F926F927F92DA
:1015C0008F929F92AF92BF92CF92DF92EF92FF9253
:1015D0000F93CF93DF9300D000D0CDB7DEB7C0908C
:1015E0001501D0901601E0901701F090180120919C
:1015F000190130911A0140911B0150911C01C70142
:10160000B6010E9493214B015C01809219019092D6
:101610001A01A0921B01B0921C0120E030E040E0D2
:1016200050E40E94EC2218160CF064C120E030E077
:10163000A901C701B6010E94EC2218160CF05AC18C
:10164000F7FAF094F7F8F094C0921501D0921601D1
:10165000E0921701F092180180E090E0A0E0B0E481
:101660008093190190931A01A0931B01B0931C0160
:1016700080901D0190901E01A0901F01B09020014C
:10168000C0903101D0903201E0903301F0903401EC
:1016900020E030E040E85FE3C501B4010E949321FF
:1016A000A70196010E94FF21811110C020E030E0C7
:1016B00040E85FE3C501B4010E9492219B01AC01A7
:1016C000C701B6010E94FF218823C9F0A701960136
:1016D000C501B4010E94FF2118160CF42FC120E0AF
:1016E00030E040E05FE3C501B4010E9493216093C4
:1016F0001D0170931E0180931F0190932001809023
:101700001D0190901E01A0901F01B090200120E0CB
:1017100030E040E050E4C501B4010E94FF211816FA
:101720000CF41DC180E090E0A0E0B0E480931D01C6
:1017300090931E01A0931F01B093200180902D0172
:1017400090902E01A0902F01B09030018091210146
:1017500090912201A0912301B091240189839A8361
:10176000AB83BC8320E030E040E951E4C501B40123
:101770000E94932129813A814B815C810E94EC2255
:1017800087FD0AC029813A814B815C81C501B40182
:101790000E94FF211816ECF420E030E040EE50E407
:1017A00069817A818B819C810E9493219B01AC018C
:1017B000C501B4010E94FF2118160CF4DFC0298175
:1017C0003A814B815C81C501B4010E94EC2287FD06
:1017D000D5C040901D0150901E0160901F01709077
:1017E000200120E030E040E451E4C701B6010E944E
:1017F0009321A30192010E94EC2287FD08C0A3015E
:101800009201C701B6010E94FF211816CCF420E016
:1018100030E048E851E4C301B2010E9493219B01EA
:10182000AC01C701B6010E94FF2118160CF4A6C036
:10183000A3019201C701B6010E94EC2287FD9EC060
:101840008AE999E9A9E9BEE38093290190932A01E5
:10185000A0932B01B0932C01809325019093260136
:10186000A0932701B093280181E080930201209189
:101870001D0130911E0140911F0150912001609186
:10188000190170911A0180911B0190911C010E9415
:1018900093216B017C01C0921D01D0921E01E09248
:1018A0001F01F092200169817A818B819C810E94C5
:1018B00004224B01C701B6010E940422CB0107E0BC
:1018C00021E144EF50E0B4010E9428060F900F90F0
:1018D0000F900F90DF91CF910F91FF90EF90DF90DD
:1018E000CF90BF90AF909F908F907F906F905F90C0
:1018F0004F90089520E030E040E050ECC501B40185
:101900000E94FF2187FFB4CE20E030E0A901C7018B
:10191000B6010E94FF2187FFABCEF7FAF094F7F8EB
:10192000F094C0921501D0921601E0921701F09246
:10193000180180E090E0A0E0B0EC92CEA701960103
:10194000C501B4010E94EC2287FDD9CE20E030E031
:1019500040E05FE3C501B4010E949221C8CE20E0BF
:1019600030E04AED52E4C501B4010E94EC2287FD4B
:10197000E5CE80E090E0AAEDB2E4D8CE40900D0133
:1019800050900E0160900F017090100120E030E047
:1019900040E251E4C501B4010E949321A3019201E8
:1019A0000E94EC2287FD08C0A3019201C501B40189
:1019B0000E94FF211816CCF420E030E040E651E40C
:1019C000C301B2010E9493219B01AC01C501B40186
:1019D0000E94FF2118160CF43FC0A3019201C5011B
:1019E000B4010E94EC2287FD37C0809011019090D5
:1019F0001201A0901301B090140120E030E040E209
:101A000051E4C701B6010E949321A50194010E94EF
:101A1000EC2287FD09C0A5019401C701B6010E940F
:101A2000FF2118160CF023CF20E030E040EA50E40C
:101A3000C501B4010E9493219B01AC01C701B6010D
:101A40000E94FF21181644F0A5019401C701B601B8
:101A50000E94EC2287FF0BCF80E090E0A0E4B0E48E
:101A60008093250190932601A0932701B09328012C
:101A7000FECECF92DF92EF92FF920F9380910B01F7
:101A800090910C018130910519F560912D017091B3
:101A90002E0180912F01909130010E9404226B0150
:101AA0006091310170913201809133019091340144
:101AB0000E940422CB0102E12CE04CE957E0B60180
:101AC0000E9428060F91FF90EF90DF90CF9008952D
:101AD0000297C1F760912D0170912E0180912F0125
:101AE000909130010E9404226B016091310170914C
:101AF000320180913301909134010E940422CB0184
:101B000002E12CE04BE457E0DACFCF93BC01990F10
:101B1000880B990B0E943C22C1E020912D0130914D
:101B20002E0140912F01509130010E94EC22181695
:101B30000CF0C0E081E08C27CF9108958F929F92A6
:101B4000AF92BF92CF92DF92EF92FF920F93CF931B
:101B5000DF936230710531F5019686309105F9F019
:101B600090930801809307018091070190910801EB
:101B70008330910509F420C314F58130910509F4EF
:101B8000C6C18230910509F4E4C106970CF45BC428
:101B900081E090E090930801809307011EC481E0EA
:101BA00090E0DECF6130710511F40197D9CF633039
:101BB0007105B4F27093080160930701D5CF8530A9
:101BC000910509F41BC40CF427C386309105E9F68E
:101BD0008DE290E090930A018093090108E029E1E9
:101BE00043E851E068E370E084E390E00E94280657
:101BF00041E370E060E090E080E00E94F10640E8A0
:101C000070E060E08FE490E00E94F1061092010124
:101C1000D0E0C0E041E0BE0190E080E00E94D70942
:101C20002196C034D105B1F7D0E0C0E041E0BE015B
:101C30008FE790E00E94D7092196C034D105B1F713
:101C400040E86FE370E090E080E00E94F10620E061
:101C500030E040E85FE360913101709132018091A2
:101C60003301909134010E94FF2187FF22C080E060
:101C700090E0A0E8BFE38093310190933201A093FC
:101C80003301B093340120E030E040E950E460914A
:101C9000BA017091BB018091BC019091BD010E947D
:101CA00093216093BA017093BB018093BC01909320
:101CB000BD0120E030E04AEE52E4609131017091C4
:101CC000320180913301909134010E94EC22181668
:101CD00014F580E090E0AAEEB2E480933101909395
:101CE0003201A0933301B093340120E030E040E9A9
:101CF00050E46091BA017091BB018091BC01909158
:101D0000BD010E9492216093BA017093BB01809340
:101D1000BC019093BD0180902D0190902E01A09068
:101D20002F01B0903001C0903101D0903201E0908D
:101D30003301F090340120E030E044E152E4C50189
:101D4000B4010E94EC2218161CF520E030E048E2B5
:101D500052E4C701B6010E94EC221816CCF420E030
:101D600030E04AE952E4C701B6010E94FF2187FF33
:101D70000FC080E090E0A0E3B1EC8093B6019093B7
:101D8000B701A093B801B093B90181E0809302013B
:101D900020E030E040E050E4C501B4010E94FF21A2
:101DA00087FF41C320E030E04CE352E4C701B601B5
:101DB0000E94EC2218160CF036C320E030E040E917
:101DC00052E4C701B6010E94FF2187FF2CC381E0C6
:101DD0008093AA0120E030E040E450E4C501B40162
:101DE0000E94EC2287FF1092AA0120E030E04CE331
:101DF00052E4C701B6010E94FF21C091AA01181642
:101E000054F420E030E040E952E4C701B6010E94FA
:101E1000EC2287FD4DC0CC2309F44CC020E030E01B
:101E20004CE352E4C701B6010E94FF211816C4F02A
:101E300080E090E0A8E3B2E4809331019093320116
:101E4000A0933301B093340180E090E0A0E0BFEBB9
:101E50008093BA019093BB01A093BC01B093BD01E4
:101E600020E030E040E952E46091310170913201AC
:101E700080913301909134010E94EC2287FDADC224
:101E800080E090E0AEE8B2E48093310190933201BB
:101E9000A0933301B093340180E090E0A0E0BFE371
:101EA0008093BA019093BB01A093BC01B093BD0194
:101EB000C11193C220E030E040E85FE3C501B40106
:101EC0000E94FF2187FF89C280E090E0A0E8BFE385
:101ED00080932D0190932E01A0932F01B093300198
:101EE0002DEC3CEC4CE45FE36091B6017091B701DE
:101EF0008091B8019091B9010E9493216093B6013D
:101F00007093B7018093B8019093B90166C28DE2D6
:101F100090E090930A018093090109E02FE34CE9D6
:101F200051E065E070E080E290E00E94280640E821
:101F30006FE370E090E080E00E94F10640E870E01E
:101F400060E090E080E00E94F10681E08093010172
:101F500044C28DE290E090930A0180930901C09100
:101F60000301D091040160910D0170910E018091E7
:101F70000F01909110010E9404226B0160911101E8
:101F80007091120180911301909114010E9404221A
:101F9000CB019E01215031092330310508F0ABC03F
:101FA00006E127E04EE651E0B6010E9428062196A0
:101FB000D0930401C093030180E090E0A0E2B2E47A
:101FC00080930D0190930E01A0930F01B093100127
:101FD000C0902D01D0902E01E0902F01F0903001A3
:101FE00080900D0190900E01A0900F01B090100113
:101FF00020E030E040E251E4C701B6010E949321A5
:10200000A50194010E94EC2287FD08C0A50194015E
:10201000C701B6010E94FF211816CCF420E030E081
:1020200040E651E4C501B4010E9493219B01AC013B
:10203000C701B6010E94FF2118160CF478CFA50144
:102040009401C701B6010E94EC2287FD70CFC090B9
:102050003101D0903201E0903301F0903401809052
:10206000110190901201A0901301B090140120E092
:1020700030E040E251E4C701B6010E949321A5017E
:1020800094010E94EC2287FD08C0A5019401C701BC
:10209000B6010E94FF211816CCF420E030E040EA9F
:1020A00050E4C501B4010E9493219B01AC01C7011A
:1020B000B6010E94FF2118160CF439CFA501940136
:1020C000C701B6010E94EC2287FD31CF80910B0140
:1020D00090910C018130910509F066C080E090E09C
:1020E000A0E0B1E48093BA019093BB01A093BC013E
:1020F000B093BD011CCF9E0124503109233031051E
:1021000068F406E127E049E551E0B6010E9428069F
:102110002196D0930401C09303015ACF9E0127500A
:1021200031092330310528F406E127E044E451E089
:10213000ECCF9E012A5031092430310588F406E1A4
:1021400027E04FE251E0B6010E9428062196D09385
:102150000401C093030180E090E0ACE1B2E430CF31
:102160009E012E5031092330310528F406E127E085
:102170004AE151E0CACF9E01215131092330310596
:1021800028F406E127E045E051E0BFCF21E030E050
:10219000309304012093030106E127E04EE651E06D
:1021A000B6010E94280614CF029709F0C0CE80E045
:1021B00090E0A0E0B1EC96CF8DE290E090930A0120
:1021C0008093090180E090E0A0EFB1E480932101C9
:1021D00090932201A0932301B093240140E86FE380
:1021E00070E090E080E00E94F10640E870E060E07E
:1021F00090E080E00E94F10681E080930101DF9190
:10220000CF910F91FF90EF90DF90CF90BF90AF9064
:102210009F908F900C94DC0A41E36FE370E090E0B4
:1022200080E00E94F10640E86FE370E08FE490E008
:102230000E94F10640E870E060E090E080E00E94DB
:10224000F106C1E0C0930101C0903101D09032018C
:10225000E0903301F090340120E030E04CE352E4B0
:10226000C701B6010E94EC2218160CF059C020E0FC
:1022700030E040E952E4C701B6010E94FF2187FF28
:102280004FC080902D0190902E01A0902F01B09012
:10229000300120E030E040E252E4C501B4010E9488
:1022A000EC2287FD9AC0C093AA0180910901909108
:1022B0000A010E94850D8823C1F080910B01909145
:1022C0000C0181309105D9F4C501B4010E940422AA
:1022D0004B01C701B6010E940422CB0102E12CE0B0
:1022E00048E757E0B4010E94280681E08093AB01E3
:1022F0008AE590E090930A01809309016EC00297ED
:10230000A1F7C501B4010E9404224B01C701B60127
:102310000E940422CB0102E12CE047E257E0E2CF29
:102320008091AA01882309F458C020E030E04CE3F2
:1023300052E4C701B6010E94FF2187FD0BC020E0D7
:1023400030E040E952E4C701B6010E94EC221816C1
:102350000CF04FC020E030E044E352E460912D01E6
:1023600070912E0180912F01909130010E94EC22FA
:1023700018160CF03EC020E030E04CE352E4C701F8
:10238000B6010E94FF2187FF0CC080E090E0ACE323
:10239000B2E48093310190933201A0933301B09362
:1023A000340120E030E040E952E460913101709165
:1023B000320180913301909134010E94EC22181671
:1023C00064F480E090E0A0E9B2E48093310190935E
:1023D0003201A0933301B0933401DF91CF910F917B
:1023E000FF90EF90DF90CF90BF90AF909F908F9035
:1023F00008951092AA018DE290E07CCF8DE290E0EA
:1024000090930A018093090180E090E0A8E4B2E48F
:102410008093210190932201A0932301B093240182
:102420000E94DC0A84CD20E030E040E450E4C501A5
:10243000B4010E94EC2287FDD8CC8091AA018823A8
:1024400009F4D3CCD0CC85E090E0A4CBCF92DF923E
:10245000EF92FF920F938091AB01811128C0809180
:10246000AC01811124C080910B0190910C0181304D
:10247000910519F560912D0170912E0180912F0128
:10248000909130010E9404226B01609131017091A2
:10249000320180913301909134010E940422CB01DA
:1024A00002E12CE04CEA50E0B6010E9428060F91B0
:1024B000FF90EF90DF90CF9008950297C1F7609161
:1024C0002D0170912E0180912F01909130010E9479
:1024D00004226B01609131017091320180913301CE
:1024E000909134010E940422CB0102E12CE040EDE6
:1024F00050E0DACF089590E080E00895FC0101906B
:102500000020E9F73197AF01481B590BBC0181E36B
:1025100096E00C9497091F920F920FB60F92112418
:102520008F939F938091E1009091E100937F90932E
:10253000E10083FF0FC01092E90091E09093EB005F
:102540001092EC0092E39093ED001092DE0198E07F
:102550009093F00082FF22C093E09093E900909165
:10256000F200992319F09AE39093E8009091CF013B
:10257000992341F09091CF0191509093CF01911107
:1025800001C05D9A9091DD01992341F09091DD01A8
:1025900091509093DD01911101C0289A84FF18C0D9
:1025A0008091E2008E7E81608093E2008091E10064
:1025B0008F7E8093E1008091D0018E7E8061809338
:1025C000D0019F918F910F900FBE0F901F90189583
:1025D00080FFF7CF8091E2008E7E80618093E200E1
:1025E0008091E1008E7E8093E1008091D0018E7E0B
:1025F0008160E5CF1F920F920FB60F921124CF92F8
:10260000DF92EF92FF920F931F932F933F934F937D
:102610005F936F937F938F939F93AF93BF93EF934A
:10262000FF93CF93DF93CDB7DEB76C97DEBFCDBFFF
:102630001092E9008091E80083FF25C068E0CE0198
:1026400045960E94A70882EF8093E8008D8987FF56
:1026500039C09091E80090FFFCCF982F907609F058
:1026600034C19E894F89588D2F89F88C911131C0C2
:10267000803861F58091CE018093F1001092F100D5
:102680008EEF8093E8006C960FB6F894DEBF0FBE15
:10269000CDBFDF91CF91FF91EF91BF91AF919F910E
:1026A0008F917F916F915F914F913F912F911F91EA
:1026B0000F91FF90EF90DF90CF900F900FBE0F9093
:1026C0001F9018959EEF9093E800C7CF1092F100ED
:1026D000D5CF913059F48111D3CF4130510581F6D6
:1026E0008091CE018D7F8093CE01CACF933049F483
:1026F0008111C6CF4130510519F68091CE0182601B
:10270000F2CF953041F48091E80080FFFCCF206843
:102710002093E300B5CF963009F0A9C00B8D1C8D36
:1027200022E01092E9001092CC011092CB01F2123B
:102730002EC01092CA011092C9010E9476081F8211
:1027400099E09983FA8291E09E8390EA98879AEFC4
:1027500099872091CB013091CC01275F3F4F3C837B
:102760002B838D831092E9001092CC011092CB0143
:102770001093CA010093C90149E050E0BE016F5FA8
:102780007F4F80E00E9450080E94760879CF109316
:10279000CA010093C9010E945A07DC0112960D91EB
:1027A0001C910115110509F451C1D801ED91FC915D
:1027B0000480F581E02DBE016B5E7F4FC801099555
:1027C000009709F03EC1F80100851185EACFF3E0DA
:1027D000FF120EC08F89882309F440C0823061F453
:1027E00040E860E183EE9BE00E941D08811148CF24
:1027F00081E28093EB0047CF813029F440E86BE021
:1028000087ED9BE0F1CF833099F70E945A07DC01F6
:102810001296ED90FC908E010F5F1F4F6801E1143E
:10282000F10479F0D701ED91FC910680F781E02D5C
:10283000B801C7010995080F111DF701E084F18463
:10284000EECFD8011C92F60101900020E9F73197F4
:10285000BF016C197D0940E0C601C6CF61EC7BE089
:10286000FB01449150E080E80E94500809CF973066
:1028700009F4BECF983021F481E08093F10000CFBD
:10288000993009F0FDCE837009F0B2CFE5E4F1E0B4
:1028900081E031E096E32191222371F08093E900F9
:1028A0003093EB00DF0111972C912093EC00909373
:1028B000ED008F5F873079F78EE78093EA00109202
:1028C000EA008F898093DE01DBCE8B8D9C8D109288
:1028D000E9001092CC011092CB019093CA01809331
:1028E000C901898D811192C08E899D89913A49F4DF
:1028F000813209F07DCF47E050E06AE371E080E08B
:10290000B3CF913209F074CF833269F48F89988DF7
:10291000B0E0A0E08093360190933701A093380196
:10292000B0933901ADCE803269F48091E80082FF26
:10293000FCCF67E08AE391E00E94A7088BEF8093C9
:10294000E8009ECE823209F09BCE8F8980934101B0
:10295000EEEFFFE7859194918B3F9C4D51F1E0E0C4
:10296000F8E080913A0190913B01A0913C01B09137
:102970003D01803B9440A105B105F1F480914101F6
:1029800080FD1AC0EE3F8AE0F80789F587E797E7F0
:1029900091838083809160008093CD0188E19BE0EA
:1029A0000FB6F894A895809360000FBE90936000D6
:1029B00067CEEEEFFAE0D5CF8081918187379747D8
:1029C00009F05ECEA89580916000886180936000D8
:1029D0008091CD0180936000EE3F2AE0F20789F0FC
:1029E0008091FE0A9091FF0A9183808349CE808175
:1029F00091818737980751F29093FF0A8093FE0ADE
:102A0000C5CF1092FF0A1092FE0A3ACE0E945A07D2
:102A1000DC0112960D911C910115110509F4E8CE07
:102A2000D801ED91FC910190F081E02DBE016B5E2B
:102A30007F4FC8010995811123CEF80100851185CA
:102A4000EBCF181619060CF41BCED2CEF1E0FF1214
:102A5000BECE65EC7BE004CF1F920F920FB60F92B3
:102A600011242F933F938F939F93AF93BF938091A4
:102A7000C1019091C201A091C301B091C4013091F4
:102A8000C00123E0230F2D3758F50196A11DB11D7C
:102A90002093C0018093C1019093C201A093C30110
:102AA000B093C4018091C5019091C601A091C70166
:102AB000B091C8010196A11DB11D8093C5019093ED
:102AC000C601A093C701B093C801BF91AF919F9178
:102AD0008F913F912F910F900FBE0F901F901895DF
:102AE00026E8230F0296A11DB11DD2CF1F920F928F
:102AF0000FB60F9211242F933F934F935F936F93D1
:102B00007F938F939F93AF93BF93CF93EF93FF9355
:102B10008091A001882379F080919F0181110BC0E1
:102B200080919E01811107C090919D0180910000CC
:102B300089278093000080919C01882309F4ACC010
:102B40008091980190919901A0919A01B0919B0177
:102B5000892B8A2B8B2B09F49FC08091980190912F
:102B60009901A0919A01B0919B010197A109B10926
:102B70008093980190939901A0939A01B0939B013F
:102B8000892B8A2B8B2B09F087C0C1E0E09196013D
:102B9000F0919701AF014F5F5F4F509397014093C2
:102BA00096012491822F807F803829F52F70E22FA3
:102BB000F0E0EE5BFE4F8081813059F0833031F7D9
:102BC0001092A00180919F018111E0CF80919D0121
:102BD0000BC0809192018111D9CF80916F008D7FC0
:102BE00080936F00809191019091000080958923DE
:102BF00080930000CBCF8039A1F4E0912F06F091B3
:102C0000300609958C2780939E01E0919601F09102
:102C10009701CF0101969093970180939601E491DB
:102C2000B5CF87FD4BC03296F0939701E0939601A4
:102C3000FA014491A0919401B0919501322F242F73
:102C40000E9483216C507E4F8F4F9F4F28EE33E0C0
:102C500040E050E00E946121209398013093990157
:102C600040939A0150939B01809198019091990112
:102C7000A0919A01B0919B01892B8A2B8B2B61F437
:102C800081E090E0A0E0B0E08093980190939901FA
:102C9000A0939A01B0939B01FF91EF91CF91BF91C7
:102CA000AF919F918F917F916F915F914F913F91E4
:102CB0002F910F900FBE0F901F901895803E29F412
:102CC000109297011092960161CF803F09F05ECF7C
:102CD00010929C01E1CF1F920F920FB60F92112418
:102CE0008F939F93AF93BF9380919201882309F4B0
:102CF0004EC080918D0190918E01A0918F01B09175
:102D00009001892B8A2B8B2B81F1909191018091DD
:102D1000000089278093000080918D0190918E01A1
:102D2000A0918F01B0919001181619061A061B0682
:102D30009CF480918D0190918E01A0918F01B091B2
:102D400090010197A109B10980938D0190938E01A3
:102D5000A0938F01B0939001BF91AF919F918F91FC
:102D60000F900FBE0F901F90189510929F01109218
:102D7000920180916F008D7F80936F00809191010F
:102D8000909100008095892380930000E5CF809189
:102D90009E018111E1CF90919101809100008927DE
:102DA000F3CFEFEDF5E01382128288EE93E0A0E01E
:102DB000B0E084839583A683B7838FE491E0918309
:102DC00080838FEF9FEF95878487E1E3F6E013829E
:102DD000128281E691E09183808385E296E0909370
:102DE000300680932F060895CF93DF9300D000D054
:102DF000CDB7DEB7789484B5826084BD84B5816038
:102E000084BD85B5826085BD85B5816085BD8091B5
:102E10006E00816080936E0010928100809181002D
:102E20008260809381008091810081608093810025
:102E30008091800081608093800080919100826009
:102E400080939100809191008160809391008091A6
:102E500090008160809390008091C1008460809395
:102E6000C1008091C10082608093C1008091C10047
:102E700081608093C1008091C30081608093C30012
:102E80008091C00082608093C0008091C200816008
:102E90008093C20080917A00846080937A00809150
:102EA0007A00826080937A0080917A0081608093BA
:102EB0007A0080917A00806880937A001092DE0117
:102EC0001092CE011092D0018091D7008160809342
:102ED000D70080EA8093D80089B5806189BD89B523
:102EE000826089BD09B400FEFDCF61E070E080E042
:102EF00090E00E94D9088091D8008F7C80618093F7
:102F0000D8008091E000807F8093E0008091E10014
:102F10008E7E8093E1008DE08093E200559A209AA6
:102F200081EC80937C0085B1806F85B984B1877E08
:102F300084B984B1876E84B95E9A5F988AB1806DD6
:102F40008AB9769A6E9881B3806F81BB899880B375
:102F50008D7080BB80E58CBD81E08DBD0E940C0929
:102F60005F9A0E940C095E985C988AE197E09A83C8
:102F7000898307E217E0E981FA8184910E94C409FC
:102F800089819A8101969A8389830817190799F78D
:102F90005C9A81E8809364008091650081608093F1
:102FA0006500A0E0B4E0BA83A98380E00E94C40970
:102FB000E981FA813197FA83E983EF2BB1F780E851
:102FC0000E94CA09882391F05C9885EA0E94C4098E
:102FD0005C9A2E982F982D9880916400806280933F
:102FE000640081E083BF889513BEFCCF82E090E04F
:102FF0000E945921882301F13E9A3F9A81E08093F3
:10300000A10181E2809300018FB7F8944091C10142
:103010005091C2016091C3017091C4018FBF809132
:10302000A401882371F01092A40180E090E0892B24
:1030300059F30E940000E8CF1092A1013E983F98FA
:10304000E0CF9091A501F42FF91B9F2F2091000153
:10305000F21740F49F5F921740F781E083BF889595
:1030600013BEE3CF91E09093A4014093A50120917A
:10307000A2013091A3012F5F3F4F3093A301209312
:10308000A201EFEDF1E081118FEF00248193819394
:10309000819381930394D1F71092A9011092A80112
:1030A0001092A7011092A60180913501882309F49E
:1030B0009EC0C090B001D090B101E090B201F090FC
:1030C000B30120E030E048EB51E4C701B6010E94B3
:1030D000FF2187FF3BC02DEC3CEC4CE45FE3C701D4
:1030E000B6010E9493216093B0017093B101809367
:1030F000B2019093B3010E94042202E12EE745E061
:103100005AE090E080E00E94280683E290E09093ED
:10311000A7018093A6018EE290E09093A90180938D
:10312000A80189E691E00E947E1287E290E09093E8
:10313000A7018093A60188E390E09093A901809372
:10314000A80186E791E00E947E123AC08091BE01FC
:103150009091BF01C2970CF043C002E12EE745E019
:103160005AE067E170E090E080E00E94280683E288
:1031700090E09093A7018093A6018EE290E0909357
:10318000A9018093A80189E691E00E947E1287E25E
:1031900090E09093A7018093A60188E390E090933C
:1031A000A9018093A80186E791E00E947E12809198
:1031B000BE019091BF0101969093BF018093BE0123
:1031C000EFEDF1E080E0A0E0B8E000800EBC8111FE
:1031D000012C1197A0FDFDCF0192B9F70DB425CFB9
:1031E000109235011092BF011092BE01E9CF20E08C
:1031F00030E040E951EC60913101709132018091F1
:103200003301909134010E94FF2187FF14C080E0B8
:1032100090E0A8E0B3E48093310190933201A09351
:103220003301B093340161E070E080910701909127
:1032300008010E949E0D20E030E04CE053E46091D4
:1032400031017091320180913301909134010E94DB
:10325000EC221816A4F480E090E0A0E6B1EC809394
:10326000310190933201A0933301B093340162E0B5
:1032700070E080910701909108010E949E0D20E06E
:1032800030E040E852E460912D0170912E01809170
:103290002F01909130010E94EC221816C4F480E0B6
:1032A00090E0A0E9B1EC80932D0190932E01A093C2
:1032B0002F01B0933001809107019091080104978C
:1032C00071F566E070E084E090E00E949E0D20E0E1
:1032D00030E040E951EC60912D0170912E01809118
:1032E0002F01909130010E94FF2187FF18C080E0DC
:1032F00090E0A0E8B2E480932D0190932E01A0937A
:103300002F01B09330018091070190910801069739
:1033100031F464E070E086E090E00E949E0D8091C0
:103320000101882389F120E030E0A90160912D019D
:1033300070912E0180912F01909130010E94FF2108
:10334000181614F180E090E0A0E8BFE380932D010F
:1033500090932E01A0932F01B09330012DEC3CEC03
:103360004CE45FE36091B6017091B7018091B801C0
:103370009091B9010E9493216093B6017093B701B7
:103380008093B8019093B901C0903101D09032017F
:10339000E0903301F090340120E030E040E251EC65
:1033A000C701B6010E94FF21181654F420E030E056
:1033B00040E053E4C701B6010E94EC2287FDFEC045
:1033C0008091B4019091B501853191059CF50196EC
:1033D0009093B5018093B40170E060E080910701A3
:1033E000909108010E949E0D80E80E94CA098823DE
:1033F00009F4E9C08091090190910A010E94850DAC
:103400008823A1F00E94390D8DE290E00E94850D85
:10341000882361F081EE9AE7A4E8B0EC8093B601CE
:103420009093B701A093B801B093B90181E0809364
:10343000AB01D6C020E030E040E251ECC701B6015C
:103440000E94FF2118160CF45BC040902D01509093
:103450002E0160902F017090300120E030E040E1BB
:1034600051E4C301B2010E9493214B015C010E940F
:10347000042269837A838B839C83A981BA81A034D7
:10348000B10530F448E0BD0182E090E00E94F10611
:1034900020E030E040E050E4C501B4010E949221F8
:1034A0000E9404229B0144E050E069817A8182E01D
:1034B00090E00E94F50920E030E040E050E4C501D2
:1034C000B4010E9493210E9404229B0144E050E039
:1034D00069817A8182E090E00E94F50920E030E085
:1034E00040EC50E4C301B2010E9493210E940422E7
:1034F00007E025E040E05AE08CE090E00E942806DA
:1035000020E030E040E053E4C701B6010E94EC2225
:1035100087FD62CF40902D0150902E0160902F01C9
:103520007090300120E030E040E151E4C301B2018D
:103530000E9493214B015C010E9404226B016034C4
:10354000710528F44EE788E790E00E94F10620E03C
:1035500030E040E050E4C501B4010E9492210E9495
:1035600004229B014DE750E0B6018FE790E00E94F6
:10357000F50920E030E040E050E4C501B4010E94CC
:1035800093210E9404229B014DE750E0B6018FE792
:1035900090E00E94F50920E030E040EC50E4C301E7
:1035A000B2010E9493210E94042207E025E040E03E
:1035B0005AE081E790E00E9428060ECF1092B501F4
:1035C0001092B40109CF88E00E94CA09811112CF7C
:1035D0008091090190910A010E94850D811117C007
:1035E00080E20E94CA09811115C080E40E94CA09C4
:1035F0008823E9F080E20E94CA09811118C082E0A4
:1036000090E090930C0180930B0181E00EC010922A
:10361000AB01E6CF80E40E94CA098111E6CF81E0C8
:1036200090E090930C0180930B018093AC0180910A
:10363000AC01811106C08091AB01811102C00E94D2
:1036400026128090B6019090B701A090B801B0907A
:10365000B901C0902901D0902A01E0902B01F0908F
:103660002C01A7019601C501B4010E94FF2187FF2B
:1036700064C12AE939E949E95EE3C501B4010E9460
:1036800093216093B6017093B7018093B801909332
:10369000B9012091B6013091B7014091B801509124
:1036A000B90160912D0170912E0180912F019091AF
:1036B00030010E9493216B017C016091090170919E
:1036C0000A01072E000C880B990B0E943C229B01DB
:1036D000AC01C701B6010E94EC2287FD3AC181E02E
:1036E000809302011092AF011092AD011092AE01D1
:1036F0001092AB011092B6011092B7011092B8016E
:103700001092B90180E090E0A4E3B2E480932D012F
:1037100090932E01A0932F01B093300180E80E9476
:10372000CA09811113C188E00E94CA0981110EC122
:103730000E94261280910B0190910C01813091051D
:1037400009F05EC18091AE01882309F40EC1609139
:103750002D0170912E0180912F01909130010E94D6
:1037600004226B016091310170913201809133012B
:10377000909134010E940422CB0102E12CE04CE93B
:1037800057E0B6010E9428068091AB018823C9F159
:1037900080E80E94CA09882309F49CC18091AF0186
:1037A00081119EC180E80E94CA0981112AC088E067
:1037B0000E94CA09811125C081E08093AF01C090A9
:1037C000B601D090B701E090B801F090B9012DECAE
:1037D0003CEC4CEC5EEBC701B6010E94FF2187FF79
:1037E00010C02DEC3CEC4CEC5EE3C701B6010E942E
:1037F00093216093B6017093B7018093B8019093C1
:10380000B9018091090190910A010E94850D8111F1
:1038100089C120E030E0A9016091B6017091B70143
:103820008091B8019091B9010E94EC2218160CF019
:1038300073C11092AE0181E08093AD018091AC0123
:10384000882309F40BC280E40E94CA094090BA019F
:103850005090BB016090BC017090BD01809031011F
:1038600090903201A0903301B090340181115DC17C
:1038700080E20E94CA09811158C120E030E0A9010C
:10388000C301B2010E94EC2218160CF47DC42DEC89
:103890003CEC4CE45EE3C301B2010E9493216B0156
:1038A0007C01C092BA01D092BB01E092BC01F092BF
:1038B000BD01A50194010E9493214B015C018092FE
:1038C000310190923201A0923301B092340120E094
:1038D00030E0A901C701B6010E94EC2287FF7EC437
:1038E0008091AB018111BAC1C090BA01D090BB01E7
:1038F000E090BC01F090BD0120E030E0A901C701DB
:10390000B6010E94FF2187FF76C460912D0170915E
:103910002E0180912F01909130010E9404226B01B1
:10392000C501B4010E940422CB0102E12CE04CED60
:1039300059E0B6010E94280691C1C092B601D0920A
:10394000B701E092B801F092B901A3CE0E94390DFF
:10395000F1CEC0922D01D0922E01E0922F01F09273
:10396000300181E08093AB01E5CE8091AD018823E9
:1039700009F40ACF80902D0190902E01A0902F0184
:10398000B09030016091310170913201809133012A
:10399000909134010E9404226B01C501B4010E9480
:1039A000042202E12CE048E757E0C6010E94280605
:1039B00080E10E94CA098823B1F020E030E040E0B5
:1039C00051E4C501B4010E9492210E94042208E042
:1039D00029E04FE657E0C6010E94280680E090E00B
:1039E000A0ECBFE304C080E090E0A0ECB0E48093E2
:1039F000290190932A01A0932B01B0932C01C4CEEE
:103A0000029709F0C1CE8091AE018823D9F0609170
:103A10002D0170912E0180912F01909130010E9413
:103A200004226B0160913101709132018091330168
:103A3000909134010E940422CB0102E12CE04BE47E
:103A400057E09FCE8091AD01882309F49DCE8090F0
:103A50002D0190902E01A0902F01B0903001C090C8
:103A60003101D0903201E0903301F0903401C50172
:103A7000B4010E9404222B01C701B6010E94042256
:103A8000CB0102E12CE047E257E0B2010E94280698
:103A900080E10E94CA09882309F4A5CF20E030E024
:103AA00040E051E4C501B4010E9492210E94042229
:103AB0004B0120E030E040E85FE3C701B6010E941F
:103AC00092210E940422CB0108E029E04FE657E052
:103AD000B40182CF88E00E94CA0981115FCE62CE14
:103AE00080910201882309F45DCE809109019091B3
:103AF0000A010E94850D811155CE81EE9AE7A4E856
:103B0000B0EC8093B6019093B701A093B801B09345
:103B1000B9011092020146CE81E08093AE0110926D
:103B2000AD018CCE1092AE01FACFE0900B01F09077
:103B30000C0192E0E916F10439F52DEC3CEC4CE473
:103B40005EE3C301B2010E9493216093BA017093B6
:103B5000BB018093BC019093BD0140902501509022
:103B600026016090270170902801A30192010E9414
:103B7000EC2218167CF54092BA015092BB0160927B
:103B8000BC017092BD0126C0A1E0EA16F10411F556
:103B90002DEC3CEC4CE45EE3C301B2010E949221A7
:103BA0006093BA017093BB018093BC019093BD01F7
:103BB00040902501509026016090270170902801C7
:103BC00077FA709477F87094A30192010E94FF2114
:103BD00087FDD1CF4090BA015090BB016090BC01ED
:103BE0007090BD01A3019201C501B4010E9493210F
:103BF0004B015C018092310190923201A09233011D
:103C0000B09234018091AB01811125C020E030E0F9
:103C1000A901C301B2010E94FF2187FFFDC0B2E0EC
:103C2000EB16F10409F0F8C060912D0170912E019E
:103C300080912F01909130010E9404226B01C501F7
:103C4000B4010E940422CB0102E12CE04CED59E0CA
:103C5000B6010E94280681E08093AC0184E00E94B6
:103C6000CA09882309F4BECA8091BE019091BF01A0
:103C70008D3391050CF4DEC280E090E0A8E6B2E45A
:103C80008093310190933201A0933301B0933401BA
:103C90001092BA011092BB011092BC011092BD01AA
:103CA00080E090E0A4E3B2E480932D0190932E0194
:103CB000A0932F01B09330011092B6011092B7017A
:103CC0001092B8011092B90180E090E0A0E1B1E457
:103CD0008093290190932A01A0932B01B0932C018A
:103CE00080E090E0A0E4B0E4809325019093260169
:103CF000A0932701B093280180E090E0A0EFB1E409
:103D00008093210190932201A0932301B093240179
:103D100080E090E0A8E6B2E480931D0190931E013C
:103D2000A0931F01B09320018DEC9CECACECBDE3A3
:103D30008093190190931A01A0931B01B0931C0169
:103D40008DEC9CECACE4BEEB8093150190931601D6
:103D5000A0931701B093180180E090E0A8E6B2E4C8
:103D60008093110190931201A0931301B093140159
:103D700080E090E0A4E2B2E480930D0190930E0104
:103D8000A0930F01B093100182E090E090930C019A
:103D900080930B018DE290E090930A0180930901DA
:103DA00081E090E0909308018093070190930601D1
:103DB0008093050190930401809303011092BF0149
:103DC0001092BE011092B5011092B401809335019A
:103DD0001092B0011092B1011092B2011092B30191
:103DE000809302011092AF011092AE011092AD01CA
:103DF0001092AC011092AB011092AA0180930101C4
:103E000083E884BD8FEF87BD81EF8093800010929F
:103E1000880010928A00D4C920E030E0A901C301D3
:103E2000B2010E94EC221816CCF4E1E0EE16F10487
:103E3000A9F460912D0170912E0180912F01909134
:103E400030010E9404226B01C501B4010E940422CA
:103E5000CB0102E12CE048EB59E0FACE88E00E9469
:103E6000CA098111F8CE80E80E94CA098111F3CEF7
:103E70008091050190910601F1E0EF16F10409F03F
:103E8000CFC081309105F1F460912D0170912E0128
:103E900080912F01909130010E9404226B01C50195
:103EA000B4010E940422CB0102E12CE044E959E074
:103EB000B6010E94280682E090E09093060180936C
:103EC0000501C9CE82309105D1F460912D01709128
:103ED0002E0180912F01909130010E9404226B01EC
:103EE000C501B4010E940422CB0102E12CE040E7AD
:103EF00059E0B6010E94280683E090E0DECF8330CF
:103F00009105D1F460912D0170912E0180912F01C6
:103F1000909130010E9404226B01C501B4010E94FE
:103F20000422CB0102E12CE04CE459E0B6010E94EE
:103F3000280684E090E0C1CF84309105D1F46091EF
:103F40002D0170912E0180912F01909130010E94DE
:103F500004226B01C501B4010E940422CB0102E1DD
:103F60002CE048E259E0B6010E94280685E090E086
:103F7000A4CF85309105D1F460912D0170912E016F
:103F800080912F01909130010E9404226B01C501A4
:103F9000B4010E940422CB0102E12CE044E059E08C
:103FA000B6010E94280686E090E087CF8630910512
:103FB000D1F460912D0170912E0180912F0190918B
:103FC00030010E9404226B01C501B4010E94042249
:103FD000CB0102E12CE040EE58E0B6010E94280639
:103FE00087E090E06ACF079709F035CE60912D0108
:103FF00070912E0180912F01909130010E94042236
:104000006B01C501B4010E940422CB0102E12CE046
:104010004CEB58E0B6010E94280681E090E04DCFBD
:1040200022E0E216F10409F016CE81309105E1F4A8
:1040300060912D0170912E0180912F01909130019E
:104040000E9404222B01C501B4010E940422CB016D
:1040500002E12CE048E958E0B2010E942806F09203
:104060000601E0920501F7CD82309105A9F4609137
:104070002D0170912E0180912F01909130010E94AD
:1040800004226B01C501B4010E940422CB0102E1AC
:104090002CE044E758E02DCF83309105A9F46091DE
:1040A0002D0170912E0180912F01909130010E947D
:1040B00004226B01C501B4010E940422CB0102E17C
:1040C0002CE040E558E032CF84309105A9F46091AE
:1040D0002D0170912E0180912F01909130010E944D
:1040E00004226B01C501B4010E940422CB0102E14C
:1040F0002CE04CE258E037CF85309105A9F460916F
:104100002D0170912E0180912F01909130010E941C
:1041100004226B01C501B4010E940422CB0102E11B
:104120002CE048E058E03CCF86309105A9F460913E
:104130002D0170912E0180912F01909130010E94EC
:1041400004226B01C501B4010E940422CB0102E1EB
:104150002CE044EE57E041CF079709F07CCD609109
:104160002D0170912E0180912F01909130010E94BC
:1041700004226B01C501B4010E940422CB0102E1BB
:104180002CE040EC57E046CF2DEC3CEC4CE45EE3F9
:10419000C301B2010E9492216B017C01C092BA015D
:1041A000D092BB01E092BC01F092BD01A501940147
:1041B0000E9493214B015C01809231019092320167
:1041C000A0923301B092340120E030E0A901C70190
:1041D000B6010E94FF2118160CF482CB1092BA018E
:1041E0001092BB011092BC011092BD011092AC0163
:1041F0000E94261275CB20E030E0A901C701B6016C
:104200000E94EC2218160CF029CD60912D017091BE
:104210002E0180912F01909130010E9404226B01A8
:10422000C501B4010E940422CB0102E12CE048EB5D
:1042300059E07FCB9C012F5F3F4F3093BF0120930C
:10424000BE01AC01495051094431510570F48CE371
:1042500090E09093A7018093A6011092A90110927B
:10426000A80186E891E00C94A3184D97449770F448
:104270008CE390E09093A7018093A6011092A9018E
:104280001092A80188E891E00C94A318223331051C
:1042900014F40C94E0188CE390E09093A7018093C1
:1042A000A6011092A9011092A8018AE891E00C944D
:1042B000A318F999FECF92BD81BDF89A992780B5D0
:1042C0000895A1E21A2EAA1BBB1BFD010DC0AA1F57
:1042D000BB1FEE1FFF1FA217B307E407F50720F06F
:1042E000A21BB30BE40BF50B661F771F881F991FEA
:1042F0001A9469F760957095809590959B01AC0133
:10430000BD01CF010895A29FB001B39FC001A39F3B
:10431000700D811D1124911DB29F700D811D1124FE
:10432000911D08955058BB27AA270E94AA210C94DA
:10433000B2220E94A42238F00E94AB2220F039F46D
:104340009F3F19F426F40C94A1220EF4E095E7FBAC
:104350000C949B22E92F0E94C32258F3BA176207DC
:1043600073078407950720F079F4A6F50C94E522ED
:104370000EF4E0950B2EBA2FA02D0B01B901900180
:104380000C01CA01A0011124FF27591B99F0593FC4
:1043900050F4503E68F11A16F040A22F232F342F0C
:1043A0004427585FF3CF469537952795A795F0405A
:1043B0005395C9F77EF41F16BA0B620B730B840B6F
:1043C000BAF09150A1F0FF0FBB1F661F771F881F27
:1043D000C2F70EC0BA0F621F731F841F48F487957F
:1043E00077956795B795F7959E3F08F0B0CF939571
:1043F000880F08F09927EE0F9795879508950E94EA
:10440000772208F481E008950E940B226894B1118C
:104410000C94E62208950E94CB2288F09F5798F0D2
:10442000B92F9927B751B0F0E1F0660F771F881FB9
:10443000991F1AF0BA95C9F714C0B13091F00E94D3
:10444000E522B1E008950C94E522672F782F8827A4
:10445000B85F39F0B93FCCF3869577956795B395FA
:10446000D9F73EF490958095709561957F4F8F4F69
:104470009F4F0895E89409C097FB3EF4909580956E
:10448000709561957F4F8F4F9F4F9923A9F0F92F1A
:1044900096E9BB279395F695879577956795B79598
:1044A000F111F8CFFAF4BB0F11F460FF1BC06F5F7E
:1044B0007F4F8F4F9F4F16C0882311F096E911C090
:1044C000772321F09EE8872F762F05C0662371F0B1
:1044D00096E8862F70E060E02AF09A95660F771FC5
:1044E000881FDAF7880F9695879597F90895990FA1
:1044F0000008550FAA0BE0E8FEEF16161706E807AE
:10450000F907C0F012161306E407F50798F0621BCE
:10451000730B840B950B39F40A2661F0232B242BA3
:10452000252B21F408950A2609F4A140A6958FEFC2
:10453000811D811D089597F99F6780E870E060E014
:1045400008959FEF80EC089500240A94161617062C
:1045500018060906089500240A9412161306140674
:1045600005060895092E0394000C11F4882352F0D7
:10457000BB0F40F4BF2B11F460FF04C06F5F7F4F8F
:104580008F4F9F4F089557FD9058440F551F59F076
:104590005F3F71F04795880F97FB991F61F09F3F30
:1045A00079F087950895121613061406551FF2CF59
:1045B0004695F1DF08C0161617061806991FF1CFA9
:1045C00086957105610508940895E894BB276627D0
:1045D0007727CB0197F908950E94772208F48FEF8F
:1045E0000895EE0FFF1F0590F491E02D0994F894C3
:0245F000FFCFFB
:1045F2001001010100010001002D00020000002451
:104602004200006842CDCC4CBECDCCCC3D0000680F
:10461200420000F041000040400000104100003420
:10462200420000684201FFFFFFFF00E100000000BE
:104632000000030100C18081000000000000006E44
:104642000712098F078407D5079307B107000000F7
:1046520000790A97097B127A12446576656C6F704D
:104662006564206279004A6F736520466162696FF2
:0C467200204C6F796100310032003300F1
:00000001FF
